:020000040800F2
:1000000030F00120BD3A0008253B0008253B0008E0
:10001000253B0008253B0008253B000800000000A8
:100020000000000000000000000000004D840008F7
:10003000253B000800000000CD8500081D86000853
:10004000253B0008253B0008253B0008253B000810
:10005000253B0008253B0008253B0008253B000800
:10006000253B0008253B0008253B0008253B0008F0
:10007000253B0008253B0008253B0008253B0008E0
:10008000253B0008253B0008253B0008253B0008D0
:10009000253B0008253B0008253B0008253B0008C0
:1000A000253B0008253B0008253B0008253B0008B0
:1000B000253B0008253B0008253B0008253B0008A0
:1000C000253B0008253B0008253B0008253B000890
:1000D000253B0008253B0008253B0008253B000880
:1000E000993A0008253B0008253B0008253B0008FD
:1000F000253B0008253B0008253B0008253B000860
:10010000253B0008253B0008253B0008253B00084F
:10011000253B0008253B0008253B0008253B00083F
:10012000253B0008253B0008253B0008253B00082F
:10013000253B0008253B0008253B0008253B00081F
:10014000253B0008253B0008253B0008253B00080F
:10015000253B0008253B0008253B0008253B0008FF
:10016000253B0008253B0008253B0008253B0008EF
:10017000253B0008253B0008253B0008253B0008DF
:10018000253B0008253B000890B484B000AF03462F
:100190000A46FB711346BB710023FB60BB7903F079
:1001A00003039B000F2202FA03F3FB601649BB799D
:1001B0009B08DBB21846144ABB799B08DBB20233BA
:1001C00052F82320FB68DB431A40831C41F82320AC
:1001D0000D48BB799B08DBB21C460B4ABB799B08D8
:1001E000DBB2023352F82320F979BB7903F0030321
:1001F0009B0001FA03F31A43A31C40F82320103795
:10020000BD4690BC704700BF0038014080B483B049
:1002100000AF7860034A7B6813600C37BD465DF819
:10022000047B7047DC00274280B485B000AF786063
:10023000294B1B687A6812881344FB607A68FB6854
:100240009A421FD0FB681B79002B1BD1234B1B68E4
:10025000FA689A4216D0224B1A68FB689A4202D179
:100260001F4A7B681360FB681A887B681A801A4BE8
:100270001B68FA68128813447A6817490968521A89
:1002800092B25A80144B1B687A6852881344BB6040
:10029000BA687B689A421AD0BB681B79002B16D1CA
:1002A0000F4B1A687B689A4202D10D4ABB681360F3
:1002B0007B681A88BB681A80074B1B687A681288AB
:1002C0001344BA6804490968521A92B25A80143722
:1002D000BD465DF8047B7047CC280020D028002064
:1002E000D428002080B483B000AF1A4B033323F02E
:1002F00003031A46184B1A60174B1B687B607B6818
:100300004FF420521A807B6800225A807B680022BA
:100310001A71114B1B6803F52053104A13600F4BE1
:100320001B6801221A710D4B1B684FF420521A8072
:100330000A4B1B684FF420525A80094B01221A7055
:10034000054B1B68074A13600C37BD465DF8047BFC
:10035000704700BFB8000020CC280020D028002023
:10036000D8280020D428002080B584B000AF786061
:100370007B68002B00D11FE0114B1B687A689A4202
:100380000F4B1B687A689A4204D30E4B1B687A683D
:100390009A4200D310E07B68083BFB60FB680022B8
:1003A0001A71094B1B68FA689A4202D2064AFB6826
:1003B0001360F868FFF738FF1037BD4680BD00BFF7
:1003C000CC280020D0280020D428002080B487B07A
:1003D00000AF78600B467B807B8803339BB223F0B1
:1003E00003037B807B880B2B01D80C237B807B88CD
:1003F000B3F5205F01D900239AE0504B1B687A685F
:100400009A424E4B1B687A689A4204D34C4B1B6845
:100410007A689A4201D37B688AE07B68083B7B61FB
:100420007B69464A12689B1A7B827B691A887B8AA1
:10043000D31A9BB2083B3B827A883B8A9A4201D905
:10044000002375E07A883B8A9A4201D17B686FE08D
:100450003A4B1B687A6912881344FB60FB681B796E
:10046000002B32D1FB681B887B817A8A7B881344FE
:100470009BB208333B81334B1A68FB689A4205D123
:100480002E4B1A683B8913442E4A13602B4B1A6873
:100490003B891344FB60FB6800221A71FB687A8970
:1004A0001A80FB687A8A5A807B693A891A80FB68CD
:1004B0001B88B3F5205F07D0204B1B68FA681288B1
:1004C00013443A895A8032E031E07B8803F1140208
:1004D0003B8A9A422BD87A8A7B8813449BB2083392
:1004E0003B81164B1A683B891344FB60154B1B6814
:1004F000FA689A4202D2134AFB681360FB68002232
:100500001A717B691A88FB681A80FB687A8A5A809C
:100510007B693A891A80FB681B88B3F5205F06D097
:10052000064B1B68FA68128813443A895A807B6824
:1005300018461C37BD465DF8047B7047CC28002068
:10054000D0280020D428002080B487B000AF034614
:10055000FB80FB88002B01D100238FE0FB88033355
:100560009BB223F00303FB80FB880B2B01D80C23E9
:10057000FB80FB88B3F5205F01D900237EE0424B6E
:100580001B681A46414B1B68D31AFB826FE03F4B36
:100590001A68FB8A13443B613B691B79002B60D1CD
:1005A0003B691B881A46FB8AD31AA3F10802FB8811
:1005B0009A4256D33B691B881A46FB8AD31AA3F189
:1005C0000802FB8814339A4227D3FA8AFB88134423
:1005D0009BB20833FB812D4B1A68FB891344BB6027
:1005E000BB6800221A713B691A88BB681A80BB6815
:1005F000FA8A5A803B69FA891A803B6901221A718A
:10060000BB681B88B3F5205F0AD0204B1B68BA6813
:1006100012881344FA895A8002E03B6901221A7158
:10062000194B1B683A699A4218D107E0174B1B68AF
:10063000154A126812881344134A1360124B1B6840
:100640001B79002B05D0104B1A68114B1B689A427E
:10065000ECD10D4B1A680E4B1B689A423B6908336C
:100660000CE00A4B1A68FB8A13441B88FB82FA8A47
:10067000FB88C3F520539A4289DB002318461C37B8
:10068000BD465DF8047B7047D4280020CC280020AC
:10069000D028002080B500AF00F08CFB074B1B7802
:1006A0000133DAB2054B1A70044B1B7803F00103D7
:1006B000002B01D000F098F980BD00BFDC2800209D
:1006C00080B584B000AF78607B681B7C072B00F29C
:1006D0008B8001A252F823F0F90600085B0700089E
:1006E000750700088F070008AD070008E907000834
:1006F000E9070008CB0700080023FB73454B1A6885
:100700007B689A4205D1434B1B68DB68414A136002
:1007100019E0404B1B68404A136010E03E4B1B68D9
:10072000DA687B689A4205D13B4B1B687A68D268CD
:10073000DA6008E0384B1B68DB68374A1360364BD9
:100740001B68002BEAD17B680022DA6002207968FE
:1007500002F07CFA00237B604BE00023FB732F4800
:10076000796800F003FD0320796802F06FFA002336
:100770007B603EE00023FB732948796800F0F6FCBB
:100780000220796802F062FA00237B6031E0786829
:10079000012109F0F5FE0346FB7397F90F30002B9A
:1007A00003D17B6805221A7423E022E078680121D6
:1007B00009F0E6FE0346FB7397F90F30002B03D1D7
:1007C0007B6805221A7414E013E07868012109F0AF
:1007D000D7FE0346FB7397F90F30002B03D17B68DC
:1007E00009221A7405E004E00023FB7300237B60F8
:1007F00000BF7B68002B06D097F90F30002B02D189
:1008000078680AF0E3F9FB7B5BB218461037BD4607
:1008100080BD00BFE0AA0120DCAA0120D8AA0120E7
:10082000D0AA012090B58DB002AF786039607B68A6
:100830001B7C0A2B08D13148796800F097FC022014
:10084000796802F003FA55E07B689B6D7B627B68F8
:100850005B6A3B627B68002B02D07B681B6800E010
:100860000023FB607B680433002B02D07B685B684D
:1008700000E000233B617B681B8BFB837B681B8C48
:10088000BB837B68D3F89030BB617B685B697B611D
:100890001B48796800F06AFC7B689B6F002B04D0D2
:1008A0007B689B6F184600F0DDFA7B685B6F002B5E
:1008B00004D07B685B6F184600F0D4FA0220796898
:1008C00002F0C4F9BB69002B04D0BB6978696FF0F2
:1008D000040198473B68002B0CD007F10C0207F18C
:1008E0001004FB8B0093BB8B0193786A396A234613
:1008F0000AF078FB2C37BD4690BD00BFE4AA01206A
:10090000D0AA012080B485B000AF78607B685B6AB4
:100910007A68128D1344FB607B68DB6A7A68128FF9
:1009200040F2B4518A4202D87A68128F01E040F254
:10093000B4521344FA68D31A002B08DB7B681A8D73
:100940007B685A857B68DB6AFA68D31A15E07B6896
:100950005A6A7B68DB6AD31A002B03DD7B680022AE
:100960005A8509E07B68DB6A9AB27B685B6A9BB256
:10097000D31A9AB27B685A85002318461437BD46AD
:100980005DF8047B704700BF80B584B000AF78602D
:100990000B467B807B681A8D7B8813449AB27B68F8
:1009A0001A857B681B8D40F66832934203D97B68B9
:1009B00040F668321A857868FFF7A4FF0346FB60AB
:1009C000FB6840F2D92293420BDD7B6893F822301A
:1009D00043F00203DAB27B6883F8222078680AF0D9
:1009E000F5F81037BD4680BDB0B588B002AF002322
:1009F0007B73974B1B680133954A136000233B615F
:100A0000944B1B687B6191E10023FB730023BB7354
:100A10007B691B7C022B08D17B6993F84A30062B3B
:100A200003D1FB7B0133FB7392E07B6993F84A307F
:100A30000C2B03D1FB7B0133FB7389E07B6993F8BB
:100A40009C30002B26D07B69D3F898305A1C7B69E8
:100A5000C3F898207B69D3F898307A6992F89C2083
:100A6000013A7D498A5C934272D37B690022C3F8C4
:100A700098207B6993F89C30062B07D87B6993F804
:100A80009C300133DAB27B6983F89C2078690AF0E4
:100A90000BFC5DE07B69DB8E1BB2002B07DB7B6907
:100AA000DB8E9BB201339BB29AB27B69DA867B699B
:100AB0009B6F002B4CD07B69DA8E7B69B3F8483092
:100AC00012B21BB29A4243DB7B691B7C022B16D00D
:100AD0007B69B3F844301BB2DB109BB21AB27B695E
:100AE000B3F846301BB213447A6992F84A20114693
:100AF0005A4A525C93409AB27B69A3F848207B69BA
:100B00000022DA867B69B3F85C207B69B3F8523047
:100B1000934228BF13467B817B895B089AB27B692D
:100B2000A3F854207B69B3F854207B691B8F9A4249
:100B300006D27B691B8F5B009AB27B69A3F85420B5
:100B40007B691A8F7B69A3F8522078690AF0C2FA90
:100B50007B691B7C062B09D13D4B1A687B691B6B9B
:100B6000D31A282B02D9FB7B0133FB737B691B89CA
:100B700003F00803002B41D07B691B7C042B03D0BE
:100B80007B691B7C072B39D1314B1A687B691B6B46
:100B9000D21A7B69D3F8943003F5242303F6B843C3
:100BA0002F49A1FB03135B099A4206D9FB7B013352
:100BB000FB73BB7B0133BB7320E0254B1A687B6959
:100BC0001B6BD21A7B69D3F894107B6993F89D3024
:100BD0001846244B03FB00F30B442149A1FB0313EC
:100BE0005B099A420AD978690AF03CFB7B6993F861
:100BF0009D300133DAB27B6983F89D207B691B7CD1
:100C0000032B09D1124B1A687B691B6BD31A282B53
:100C100002D9FB7B0133FB737B691B7C092B09D158
:100C20000B4B1A687B691B6BD31AF02B02D9FB7B29
:100C30000133FB73FB7B002B46D0786900F066FA2A
:100C40003B69002B10D07B69DA683B69DA600FE002
:100C5000D4AA0120D0AA01204CB700083CB7000854
:100C6000D34D6210F82401007B69DB684E4A1360A3
:100C70007B69D3F89030002B08D07B69D3F8903093
:100C80007A69526910466FF004019847BB7B002BCC
:100C900010D07B69986D7B69596A7D697B691C1DE1
:100CA0007B691A8B7B691B8C009201932A46234631
:100CB0000AF098F97B69DB687B600220796901F0B2
:100CC000C5FF7B687B6131E07B6993F83430013389
:100CD000DAB27B6983F834207B6993F834207B692E
:100CE00093F835309A421CD37B69002283F8342074
:100CF0007B69D3F88C30002B0AD07B69D3F88C3019
:100D00007A69526910467969984703467B7301E016
:100D100000237B7397F90D30002B02D1786909F01D
:100D200055FF7B693B617B69DB687B617B69002BDD
:100D30007FF46AAE00233B611C4B1B687B612CE097
:100D40000023FB731A4B1A687B691B6BD31AF02BB9
:100D500002D9FB7B0133FB73FB7B002B18D0786936
:100D600000F0D4F93B69002B04D07B69DA683B6959
:100D7000DA6003E07B69DB680C4A13607B69DB683F
:100D80007B600220796901F061FF7B687B6104E090
:100D90007B693B617B69DB687B617B69002BCFD121
:100DA0001837BD46B0BD00BFD0AA0120E4AA01207B
:100DB000D4AA012090B583B000AF294B1B687B609B
:100DC00047E07B68DB6F002B24D07B68D3F884304E
:100DD000002B0ED07B68D3F884407B685A697B680F
:100DE000DB6F104679681A460023A0470346FB7064
:100DF00009E07B68DB6F002079681A46002300F069
:100E00006BF80346FB7097F90330002B02D17B6827
:100E10000022DA677B6893F8223003F00103002B8D
:100E200014D07B6893F8223043F00203DAB27B6877
:100E300083F82220786809F0C9FE7B6893F8223095
:100E400023F00303DAB27B6883F822207B68DB6837
:100E50007B607B68002BB4D10C37BD4690BD00BFD2
:100E6000D0AA012080B584B000AF78600023FB7366
:100E70000CE07B681B68BB60786800F00FF80346E5
:100E80001A46FB7B1344FB73BB687B607B68002BBB
:100E9000EFD1FB7B18461037BD4680BD80B584B0CE
:100EA00000AF78600023FB737B68002B0ED07B685B
:100EB0005B68002B06D07B685B68184606F0E4FC94
:100EC0000346FB730420796801F0C0FEFB7B1846E3
:100ED0001037BD4680BD00BF80B584B000AFF8605C
:100EE000B9607A60FB707B68002B09D07B681B8936
:100EF000B8681946FFF748FD786806F0C5FC08E0B9
:100F000097F90330002B04D1B868FFF7D9FB0346EB
:100F100000E000235BB218461037BD4680BD00BF1D
:100F200080B586B000AF0346FB717F23FB720023C0
:100F3000FB6000233B61184B1B687B611FE07B69F2
:100F40005B7CFA799A4217D37B695B7CFA7A9A4286
:100F500012D3124B1A687B691B6BD21AFB689A4238
:100F60000AD30E4B1A687B691B6BD31AFB607B6933
:100F70003B617B695B7CFB727B69DB687B617B69C6
:100F8000002BDCD13B69002B03D038690121FFF72E
:100F900049FC1837BD4680BDD0AA0120D4AA012043
:100FA00080B584B000AF00237B600023BB60124B90
:100FB0001B68FB6012E0114B1A68FB681B6BD21AAE
:100FC0007B689A4207D30D4B1A68FB681B6BD31AD8
:100FD0007B60FB68BB60FB68DB68FB60FB68002B29
:100FE000E9D1BB68002B03D0B8680121FFF71AFCD8
:100FF0001037BD4680BD00BFE4AA0120D4AA01205D
:1010000080B584B000AF0346FB71022001F0FCFD07
:10101000F860FB68002B10D1FFF7C2FF022001F03F
:10102000F3FDF860FB68002B07D1FB791846FFF74A
:1010300077FF022001F0E8FDF860FB68002B59D033
:10104000F8680021A0220AF0C1FAFB6840225A7415
:10105000FB6840F66832A3F86E20FB680022A3F814
:101060007020FB6840F668321A85FB6840F66832EB
:101070005A85FB6800229A72FB68FF22DA72FB68CD
:101080004FF406721A87FB680622A3F84820FB6813
:101090000022A3F84420FB680622A3F84620FB6840
:1010A0004FF6FF72DA86FB680122A3F8522000F0A7
:1010B000B3F8B860FB68BA685A66FB68BA689A65A4
:1010C000FB68BA68DA64FB68BA689A660C4B1A68FF
:1010D000FB681A63FB68002283F83420FB68094A26
:1010E000C3F88420FB68084AC3F89420FB680022F8
:1010F00083F89D20FB6818461037BD4680BD00BFB1
:10110000D4AA0120D90E000800DD6D0080B582B0A0
:1011100000AF78607B681B7C002B24D07B681B7C35
:101120000A2B20D07B681B7C012B1CD07B68DB6FDB
:10113000002B07D07B68DB6F184606F0A5FB7B68A9
:101140000022DA677B685B6F1846FFF78BFE7B68CF
:101150009B6F1846FFF786FE7B6800225A677B6804
:101160005A6F7B689A670837BD4680BD80B582B0EC
:1011700000AF786039607B681A683B689A4205D195
:101180007B681B68DA687B681A6019E07B681B68FB
:10119000204A136010E01F4B1B68DA683B689A42D4
:1011A00005D11C4B1B683A68D268DA6008E0194B1D
:1011B0001B68DB68174A1360164B1B68002BEAD1CB
:1011C0003B680022DA603868FFF7A0FF3B681B7CB1
:1011D0000A2B16D03B681B7C012B12D03B6893F87E
:1011E000223003F00103002B0BD03B6893F8223030
:1011F00043F00203DAB23B6883F82220386809F032
:10120000E5FC3B681B7C012B3B6800221A74083705
:10121000BD4680BDDCAA012080B400AF064B1A6831
:10122000064B1B681344044A1360034B1B681846A3
:10123000BD465DF8047B704730000020D4AA012031
:1012400080B584B000AF03463960FB80386808F091
:10125000B5F8F860FB68002B0DD0FB681B8D002BE8
:1012600009D0FB681B8D283B7B817A89FB889342E0
:1012700028BF1346FB80FB8818461037BD4680BD4B
:10128000B0B588B002AF786039607B685B68A04A0F
:1012900013607B685C689E4B1B681B889BB218467A
:1012A00006F0F4FC03461B0A9BB203F00F039B00FD
:1012B0002344984A1360964B1B681B889BB21846C0
:1012C00006F0E4FC03461B0A9BB203F00F039BB23B
:1012D0009B009BB25B429BB29BB21BB278681946E3
:1012E00006F062FA0346002B03D17B681B89132B9F
:1012F00003D8786806F0C8FA9DE2854B1B68103366
:101300001846396803F032FB0346002B0FD1804B9F
:101310001B681C694FF0704006F0E0FC03461C405F
:101320004FF0604006F0DAFC03469C4203D1786837
:1013300006F0AAFA7FE2774B1B689B899BB218469E
:1013400006F0A4FC03461B0B9BB2BB72BB7A9BB29C
:101350001A469203D31A9B009BB29BB21BB27868C9
:10136000194606F021FA0346002B03D0786806F0F0
:101370008BFA60E2674B1C68664B1B681B889BB24C
:10138000184606F083FC03462380624B1C68614BC1
:101390001B685B889BB2184606F078FC03466380A6
:1013A0005C4B1C685B4B1B685B68184606F096FC40
:1013B000034663606368584A1360564B1C68554B7C
:1013C0001B689B68184606F089FC0346A360A36867
:1013D000524A13604F4B1C684E4B1B68DB899BB213
:1013E000184606F053FC0346E3814A4B1B689B8971
:1013F0009BB2184606F04AFC0346DBB203F03F03FB
:10140000DAB2474B1A707B681A89454B1B7803F098
:101410000303002B14BF01230023DBB29BB2134450
:101420009AB2404B1A8000233B613F4B1B687B61A3
:1014300032E07B691A8C374B1B681B889BB29A423F
:1014400025D17B691A8B334B1B685B889BB29A4210
:101450001DD17B695A682E4B1B68DB689A4216D1F6
:101460007B691A682A4B1B681B699A420FD13B693A
:10147000002B0BD07B69DA683B69DA602A4B1A686B
:101480007B69DA60284A7B69136008E007E07B69C2
:101490003B617B69DB687B617B69002BC9D17B6920
:1014A000002B7AD1214B1B687B6127E07B691A8C6A
:1014B000184B1B681B889BB29A421CD17B691A8B04
:1014C000144B1B685B889BB29A4214D17B695A68A3
:1014D0000F4B1B68DB689A420DD17B691A680C4B75
:1014E0001B681B699A4206D1786900F083FA786814
:1014F00006F0CAF99FE17B69DB687B617B69002BA1
:10150000D4D100233B610A4B1B68FB6042E000BF63
:10151000F8280020F4280020FC28002000290020C2
:101520000429002006290020D0AA0120E4AA0120D5
:10153000D8AA0120FB68002B0AD0FB681B68002B8F
:1015400006D0FB681A689C4B1B681B699A421CD129
:10155000FB681A8B994B1B685B889BB29A4214D12B
:101560003B69002B0AD0FB68DA683B69DA60944B70
:101570001A68FB68DA60924AFB681360F86800F04A
:1015800067F9786806F080F955E1FB683B61FB6814
:10159000DB68FB60FB68002BCCD17B69002B00F083
:1015A0001D81884B00221A607B681A89854B9A81BD
:1015B0007B685B68834A9360824A7B6853607F4B99
:1015C0001B68804A1361804B00221A607F4B002207
:1015D0001A707B69DB6F002B29D07B69D3F88430CC
:1015E000002B0ED07B69D3F884407B695A697B69F4
:1015F000DB6F104679691A460023A0470346FB7249
:1016000009E07B69DB6F002079691A460023FFF748
:1016100063FC0346FB7297F90B30002B03D17B6907
:101620000022DA6703E0786806F02EF903E1684AE1
:101630007B691360786900F051FA0346FB7297F9F1
:101640000B3013F1050F00F0A780604B1B7803F0FF
:101650000803002B16D07B69D3F89030002B08D0FC
:101660007B69D3F890307A69526910466FF00501B2
:10167000984758487969FFF779FD0220796901F0A8
:10168000E5FA89E0514B1B7803F01003002B08D0DA
:1016900050487969FFF76AFD0220796901F0D6FAAE
:1016A0007AE00023FB727B69B3F86C30002B14D016
:1016B0007B69D3F88030002B0DD07B69D3F8803064
:1016C0007A6951697A69B2F86C2008467969984755
:1016D0000346FB7201E00023FB723B4B1B68002BAF
:1016E00034D03D4B1B7803F00803002B08D0364B59
:1016F0001B68354A1268527B42F00102D2B25A731B
:101700007B69D3F88430002B0ED07B69D3F88440FA
:101710007B695A692C4B1B68104679691A4600236D
:10172000A0470346FB7209E0274B1B68002079693C
:101730001A460023FFF7D0FB0346FB7297F90B30E4
:10174000002B03D0204B1A687B69DA671F4B1B788C
:1017500003F02003002B19D07B69D3F88430002BD1
:101760000CD07B69D3F884407B695B691846796942
:1017700000220023A0470346FB7207E0002079699E
:1017800000220023FFF7A8FB0346FB72104B002248
:101790001A60786909F01AFA0D4B00221A60094B99
:1017A0005B68002B47D0074B5B68184606F06CF867
:1017B000044B00225A603EE0F8280020F428002064
:1017C000D8AA0120E02800200C29002008290020A8
:1017D000E8AA0120D0AA012004290020174B1B6889
:1017E0009B899BB2184606F051FA034603F00403A6
:1017F000002B1DD1124B1868124B1B881A46124B36
:101800001B68D118114B1B6803F110050F4B1B68A7
:1018100003F10C04094B1B685B889AB2074B1B68E9
:101820001B889BB2009201932A46234609F0DAFBFB
:10183000786806F029F81837BD46B0BDF4280020B6
:101840000029002006290020FC280020F82800207C
:10185000B0B586B002AF78605F4B1B7803F0100321
:10186000002B1FD05D4B1B68581C5D4B1B881A4614
:101870005C4B1B68D1185C4B1B6803F110055A4B7D
:101880001B6803F10C04594B1B685B889AB2574BD9
:101890001B681B889BB2009201932A46234609F0DD
:1018A000A1FB92E04C4B1B7803F00203002B00F0ED
:1018B0008C807B685B7C1846FFF7A2FBF860FB68B6
:1018C000002B01D1FF2381E0474B1B681033002B15
:1018D00003D0454B1B681B6900E00023FA681360C6
:1018E0007B681A8BFB681A833F4B1B680C33002BF9
:1018F00003D03D4B1B68DB6800E00023FA685360AF
:101900003A4B1B681B889AB2FB681A84FB68032257
:101910001A74344B1B685A1CFB685A62FB685A6A7B
:10192000FB68DA62314B1B68DB899AB2FB68A3F86B
:101930005C20FB68B3F85C20FB68A3F85420294BBB
:101940001B685A1EFB681A667B685A69FB685A61F5
:101950007B68DA69FB68DA617B681A8940F299135F
:1019600013409AB2FB681A81214B1A68FB68DA604F
:101970001F4AFB681360F86801F078F8FB681A8F5B
:10198000FB68043310461946FFF75AFC03461A4613
:10199000FB681A870023009301230193F868002154
:1019A0000022122308F002FE0346FB7297F90B3067
:1019B000002B05D0F8680021FEF734FFFB7A05E024
:1019C000F86809F003F9034600E000235BB218460B
:1019D0001037BD46B0BD00BF0429002000290020FB
:1019E00006290020FC280020F8280020F4280020E8
:1019F000D0AA0120B0B584B002AF7860304B1B781C
:101A000003F00403002B01D0002353E02C4B1B7880
:101A100003F00203002B30D02A4B1A687B685B6A04
:101A2000D31A002B33DB274B1A687B685B6A796813
:101A3000098D0B44D31A002B29DC234B1868234B48
:101A40001B881A461F4B1B68D118214B1B6803F1DA
:101A500010051F4B1B6803F10C041E4B1B685B88B1
:101A60009AB21C4B1B681B889BB2009201932A46BA
:101A7000234609F0B7FA00231CE0114B1B7803F052
:101A80000103002B03D0144B1A687B681A630F4BB9
:101A90001B88002B0DD07B6893F8223043F00203A3
:101AA000DAB27B6883F82220786809F08FF8034661
:101AB00000E000235BB218460837BD46B0BD00BF4A
:101AC00004290020FC2800200029002006290020ED
:101AD000F8280020F4280020D4AA0120B0B586B050
:101AE00002AF78600023FB730023BB73A54B1B7808
:101AF00003F00403002B36D07B681B7C022B08D13B
:101B00007B689A6DA04B1B689A4215D10123FB7329
:101B100012E09E4B1A687B685B6AD31A002B0BDBC2
:101B20009A4B1A687B685B6A7968098D0B44D31AF3
:101B3000002B01DC0123FB73FB7B002B11D0944BAA
:101B40001B7843F00803DAB2914B1A707B6893F864
:101B5000223023F00103DAB27B6883F82220FA23D3
:101B600010E300230EE3874B1B7803F00203002BE6
:101B700015D07B681B7C022B11D07B681B7C032B50
:101B80000DD07B6893F8223043F00203DAB27B6811
:101B900083F82220786809F019F80023F2E27D4BDF
:101BA0001A687B681A637B68002283F89D20786836
:101BB00000F05CFF7B681B7C023B072B00F2E0829D
:101BC00001A252F823F000BFE91B0008A51D000880
:101BD000E11E0008151F00082D200008E11E000866
:101BE000C520000851210008664B1B7803F0100344
:101BF000002B00F0A080634B1B7803F00203002B46
:101C000000F099807B689B6F1B695B68184606F043
:101C100065F803465A1C5C4B1B689A4240F08B8067
:101C20007B68B3F86E3001339AB27B68A3F86E20FC
:101C3000564B1B685A1C7B685A627B685A6A7B68E1
:101C4000DA62514B1A687B68DA64534B1B68DB8994
:101C50009AB27B68A3F85C204C4B1B685A1E7B68C9
:101C60001A667B6804221A747B681A8F7B680433B7
:101C700010461946FFF7E4FA03461A467B681A87AE
:101C80007B681B8F1A46920013445B009AB27B68F4
:101C9000A3F854207B68B3F85230012B04D17B6841
:101CA0001B8F5B009BB201E07B681B8F7A68A2F8F8
:101CB00052307B68B3F87030013B9AB27B68A3F86E
:101CC00070207B689B6FBB60BB681A687B689A67F3
:101CD0007B689B6F002B04D17B684FF6FF72DA861E
:101CE00006E07B680022DA867B68002283F84A20BF
:101CF000B868FFF7D3F87B68D3F88830002B0BD097
:101D00007B68D3F888307A68526910467968002277
:101D100098470346BB7301E00023BB737B6893F8CD
:101D2000223043F00203DAB27B6883F8222078681D
:101D300008F04CFF24E0134B1B7803F01003002B3A
:101D40001ED0114B1868154B1B881A460F4B1B6889
:101D5000D118134B1B6803F11005114B1B6803F1DD
:101D60000C040D4B1B685B889AB20B4B1B681B88DD
:101D70009BB2009201932A46234609F033F900E210
:101D8000FFE100BF0429002000290020FC280020DA
:101D900008290020D4AA0120F428002006290020C8
:101DA000F8280020974B1B7803F01003002B00F05D
:101DB0008580954B1A687B68DB6CD31A013B002B3E
:101DC0005CDB914B1A687B689B6DD31A002B55DC4A
:101DD0007B6804221A747B68DB69002B0AD07B685D
:101DE000DB697A6852691046796800229847034691
:101DF000BB7301E00023BB7397F90E30002B05D0B5
:101E000078680121FEF70EFDFB23BBE17B68B3F888
:101E10005230BB81786800F0C7F97B68B3F86C304A
:101E2000002B07D07B68B3F86C30013B9AB27B681B
:101E3000A3F86C20BB89012B04D17B681B8F5B004E
:101E40009BB201E07B681B8F7A68A2F852306F4B1F
:101E50001B7803F02003002B0FD07B6893F822300F
:101E600043F00203DAB27B6883F82220786808F036
:101E7000ADFE7B6807221A741FE01EE0624B1868F3
:101E8000634B1B881A46634B1B68D118624B1B6857
:101E900003F11005604B1B6803F10C045F4B1B68DA
:101EA0005B889AB25D4B1B681B889BB200920193C2
:101EB0002A46234609F096F811E010E0514B1B78B2
:101EC00003F00203002B0AD07B685B6A5A1E514B59
:101ED0001B689A4203D1786809F02CF951E150E16E
:101EE000786800F061F9494B1B7803F02003002B60
:101EF0000FD07B6893F8223043F00203DAB27B689C
:101F000083F82220786808F061FE7B6807221A7443
:101F100037E136E1786800F047F93C4B1B7803F075
:101F20002003002B5DD0374B1B7803F01003002BF0
:101F300047D07B689A6D344B1B689A4241D17B68CD
:101F400093F8223043F00203DAB27B6883F8222050
:101F5000786808F03BFE7868FFF7D8F8304B1A68CD
:101F60007B689A4205D12E4B1B68DB682C4A1360B4
:101F700019E02B4B1B682B4A136010E0294B1B68A0
:101F8000DA687B689A4205D1264B1B687A68D2686A
:101F9000DA6008E0234B1B68DB68224A1360214BA0
:101FA0001B68002BEAD17B680022DA607B680A227A
:101FB0001A741D4B1A687B68DA601B4A7B681360D1
:101FC0001FE07B6893F8223043F00203DAB27B68AB
:101FD00083F82220786808F0F9FD7B6808221A74DB
:101FE0000FE0084B1B7803F01003002B09D07B682F
:101FF0009A6D054B1B689A4203D17B6806221A74BE
:10200000BFE0BEE0042900200029002008290020AC
:1020100006290020FC280020F8280020F4280020B1
:10202000D0AA0120DCAA0120E4AA0120786800F0EF
:10203000BBF8574B1B7803F02003002B41D07B6883
:1020400093F8223043F00203DAB27B6883F822204F
:10205000786808F0BBFD7868FFF758F84D4B1A68B0
:102060007B689A4205D14B4B1B68DB68494A136079
:1020700019E0484B1B68484A136010E0464B1B6848
:10208000DA687B689A4205D1434B1B687A68D2684C
:10209000DA6008E0404B1B68DB683F4A13603E4B48
:1020A0001B68002BEAD17B680022DA607B680A2279
:1020B0001A743A4B1A687B68DA60384A7B68136096
:1020C0005FE05EE0786800F06FF8354B1B7803F056
:1020D0001003002B3BD07B689A6D324B1B689A42F1
:1020E00035D17868FFF712F82A4B1A687B689A4254
:1020F00005D1284B1B68DB68264A136019E0254B85
:102100001B68254A136010E0234B1B68DA687B6864
:102110009A4205D1204B1B687A68D268DA6008E0E1
:102120001D4B1B68DB681C4A13601B4B1B68002B94
:10213000EAD17B680022DA607B680A221A74174BA6
:102140001A687B68DA60154A7B68136019E018E04A
:10215000786800F029F8124B1B7803F01003002B6D
:102160000DD07B689A6D0F4B1B689A4207D1084BC4
:102170001B7843F01003DAB2054B1A7001E000E05F
:1021800000BF00235BB218461037BD46B0BD00BF8C
:1021900008290020D0AA0120DCAA0120E4AA0120FD
:1021A0000429002000290020F0B58BB000AF786032
:1021B0000023BB61A54B1B7803F01003002B00F03C
:1021C00098827B68B3F85C301A467B685B6E134478
:1021D0007B617B681A6E9E4B1B68D31A002B1BDB3E
:1021E0007B681A6E9A4B1B689A4206D17B685A6EBE
:1021F000984B1B68D31A002B0EDB7B685A6E954BED
:102200001B689A4225D1944B1B68DB899AB27B6884
:10221000B3F85C309A421CD98F4B1B68DB899AB2A9
:102220007B68A3F85C208A4B1A687B681A66894B26
:102230001A687B685A667B68B3F85C30002B08D05C
:102240007B6893F89C30002B03D07B68002283F8D6
:102250009C20804B1A687B68DB6CD31A002B5BDCFC
:102260007B680022A3F86C207C4B1B88002B4AD192
:102270007B685B6E7A68B2F85C201A447B699A428C
:1022800041D17B68DB8E1BB2002B3CDB7B68DA6CB8
:10229000704B1B689A4236D10123BB617B6893F86F
:1022A000503001337A6892F85020934207DD7B6802
:1022B00093F850300133DAB27B6883F850207B68A2
:1022C00093F85030032B16D97B68B3F852207B6803
:1022D0001B8F13449AB27B68B3F852309A4212D9DA
:1022E0007B68B3F852207B681B8F13449AB27B68DB
:1022F000A3F8522007E07B6893F85030032B02D1FB
:10230000786808F059FFBB69002B40F026817B6894
:10231000002283F8502062E14E4B1A687B68DB6C28
:10232000D31A013B002BC0F214814A4B1A687B6818
:102330009B6DD31A002B00F30C817B6893F822303D
:1023400003F00403002B0ED07B6893F8223023F0B7
:102350000403DAB27B6883F822207B68B3F8542048
:102360007B68A3F852207B68002283F84A207B68B0
:10237000B3F844301BB2DB109BB29AB27B68B3F85F
:1023800046309BB213449BB29AB27B68A3F84820B4
:10239000304B1B689AB27B68DB6C9BB2D31A9AB243
:1023A0007B68A3F86C207B68B3F86E207B68B3F879
:1023B0006C3013449AB27B68A3F86E207B680022CD
:1023C00083F85020234B1A687B68DA647B681B7C97
:1023D000032B3AD97B68B3F852207B68B3F85430AA
:1023E0009A4216D27B68B3F852207B681B8F134445
:1023F0009AB27B68B3F852309A4226D97B68B3F818
:1024000052207B681B8F13449AB27B68A3F852203A
:1024100067E07B68B3F852207B681B8F19467B68A6
:102420001B8F03FB01F37968B1F8521093FBF1F3B2
:102430009BB213447B827B68B3F852307A8A9A420B
:1024400003D97B687A8AA3F852204AE00429002045
:10245000FC28002000290020F42800200629002064
:102460007B689B6FFB607B689B6F1A687B689A67D1
:10247000FB685B68184605F057FA7B68B3F86C3068
:10248000002B13D0FB681B699B899BB2184605F093
:10249000FDFB034603F00103002B07D07B68B3F874
:1024A0006C30013B9AB27B68A3F86C20FB685B68D8
:1024B000184605F039FA034619467B68B3F87020D0
:1024C0008BB2D31A9AB27B68A3F87020F868FEF733
:1024D000E5FC7B68B3F87030002B02D07B689B6F03
:1024E000002B7B689B6F002B22D07B689B6F1B6946
:1024F0005B68184605F0F2FB04467B689B6F9B897E
:102500001D467B689B6F1B699B899BB2184605F033
:10251000BDFB034603F00303002B14BF012300237C
:10252000DBB22B44E2189B4B1B68D31A002B97DDC0
:102530007B689B6F002B04D17B684FF6FF72DA86B5
:1025400002E07B680022DA867B68002283F8342070
:1025500003E07B680022A3F86C2040E07B685B6F9F
:10256000FB607B685B6F1A687B685A67FB685B6817
:10257000184605F0D9F97B68B3F86C30002B13D0FE
:10258000FB681B699B899BB2184605F07FFB0346DD
:1025900003F00103002B07D07B68B3F86C30013BDC
:1025A0009AB27B68A3F86C20FB685B68184605F05C
:1025B000BBF9034619467B68B3F870208BB2D31A77
:1025C0009AB27B68A3F87020F868FEF767FC7B6816
:1025D000B3F87030002B02D07B689B6F002B7B68B8
:1025E0005B6F002B29D06B4B1C687B685B6F1B6992
:1025F0005B68184605F072FB05467B685B6F9B893C
:102600001E467B685B6F1B699B899BB2184605F071
:102610003DFB034603F00303002B14BF01230023FB
:10262000DBB233442B44E31A002B06DB594B1A6808
:102630007B689B6DD31A002B90DD7B68DB6B002BD6
:1026400057D07B681A6C534B1B68D31A002B50DA97
:10265000514B1B689AB27B68DB6B9BB2D31A9BB25F
:10266000FB83FA8B7B68B3F844301BB2DB109BB260
:102670009BB2D31A9BB2FB837B68B3F844309AB207
:10268000FB8B13449BB29AB27B68A3F84420B7F942
:102690001E30002B03DAFB8B5B429BB2FB83FA8B71
:1026A0007B68B3F846301BB29B109BB29BB2D31A27
:1026B0009BB2FB837B68B3F846309AB2FB8B134422
:1026C0009BB29AB27B68A3F846207B68B3F844308B
:1026D0001BB2DB109BB29AB27B68B3F846309BB258
:1026E00013449BB29AB27B68A3F848207B6800220F
:1026F000DA632A4B1B88002B00F094817B685A6AAE
:10270000274B1B68D31A013B002B75DB7B685A6A89
:10271000224B1B881946224B1B680B44D31A0133EA
:10272000002B69DC7B685A6A1D4B1B68D31A3B621D
:102730001C4B5B687B621B4B5B685B891A463B6A80
:102740009A4231DA174B5B681A893B6A9BB2D31AFB
:102750007B810EE07B6A5B891A463B6A9B1A3B626F
:102760007B6A7A891A817B6A00225A817B6A1B689C
:102770007B627B6A5B891A463B6A9A42EADB3B6A68
:102780009BB25B429BB29BB21BB2786A194605F0C2
:102790000BF815E000290020D4AA0120062900200A
:1027A000FC280020E0280020994B5A683B6A9BB225
:1027B0005B429BB29BB21BB21046194604F0F4FF79
:1027C0007B6A5B68924A9360914B9A89914B1B6834
:1027D00099B27B685B6A9BB2CB1A9BB213449AB2E4
:1027E0008B4B9A818A4B1B697A68526A89490A60C5
:1027F000884A12685A6012E0864B1A687B685B6AE6
:10280000D31A002B0BDA7B6893F8223043F00203D3
:10281000DAB27B6883F82220786808F0D7F97D4B1C
:102820001A687B685B6AD31A002BC0F2EB80794B85
:102830001A687B685B6A7968098D0B44D31A013387
:10284000002B00F3DF807B685A6A724B1B689A4248
:1028500040F0D4806E4B9C896D4B1B699B899BB269
:10286000184605F013FA034603F00303002B14BFC8
:1028700001230023DBB29BB223449AB2664B1A8039
:102880007B681A8D644B1B889A425ED2604B1B6931
:102890009B899BB2184605F0F9F9034603F0010342
:1028A000002B1ED05A4B1C69594B1B699B899DB24A
:1028B0004FF6C07005F0D4F903462B409DB2544B3F
:1028C0001B699B899BB2184605F0E0F9034603F0AB
:1028D0003E039BB2184605F0C3F903462B439BB257
:1028E000A3817B681A8D4A4B9A81494B1B699B894E
:1028F0009BB2184605F0CAF9034603F00203002B09
:1029000005D0434B9B89013B9AB2414B9A81404B86
:102910005A683F4B9B891046194604F0E1FE3C4B38
:102920009C893B4B1B699B899BB2184605F0AEF90D
:10293000034603F00303002B14BF01230023DBB283
:102940009BB223449AB2344B1A80334B1B881A46ED
:10295000304B1B681A447B685A627B681A8D2E4B79
:102960001B88D31A9AB27B681A857868FDF7CAFF6C
:10297000274B5B681B89002B06D0254B5B68274AD9
:102980001360234B00225A60214B1B699B899BB229
:10299000184605F07BF9034603F00103002B06D02F
:1029A0001F4B1B7843F02003DAB21D4B1A707B6873
:1029B00093F8223003F00103002B15D07B6893F8C5
:1029C000223023F00103DAB27B6883F822207B688F
:1029D00093F8223043F00203DAB27B6883F82220B6
:1029E000786808F0F3F811E07B6893F8223043F040
:1029F0000103DAB27B6883F8222007E0786808F0E8
:102A0000AFF803E0786808F0ABF829E028E000BFF1
:102A1000E0280020FC280020062900200C290020A6
:102A200008290020104B1A687B685B6AD31A002BB8
:102A30000ADB0D4B1A687B685B6A7968098D0B4469
:102A4000D31A0133002B0BDD7B6893F8223043F05F
:102A50000203DAB27B6883F82220786808F0B6F8BF
:102A60002C37BD46F0BD00BFFC28002080B586B0E5
:102A700000AF78603D4B1B6814333B613B4B1B68D8
:102A80009B899BB2184605F001F903461B0B9BB2CC
:102A9000052B68D9354B1B689B899BB2184605F0FE
:102AA000F5F803461B0B9BB2053B9BB29B00FB81D9
:102AB0000023FB8251E0FB8A3A6913441B787B7345
:102AC0007B7B012B04D0022B06D0002B4AD033E0B5
:102AD000FB8A0133FB8240E0FB8A01333A691344ED
:102AE0001B78042B04D1FB8A1A1DFB899A4200DD56
:102AF00039E0FB8A02333A6913441B781B0299B20E
:102B0000FB8A03333A6913441B789BB20A4613438A
:102B10009BB27B817B8940F2B452934204D87B897B
:102B2000002B01D07A8901E040F2B4527B681A8709
:102B3000FB8A0433FB8210E0FB8A01333A691344B9
:102B40001B78002B00D10EE0FB8A01333A69134455
:102B50001B789AB2FB8A1344FB82FA8AFB899A4259
:102B6000A9D300E000BF1837BD4680BDF42800207F
:102B700080B483B000AF00237B8002E07B88013308
:102B80007B807B88082BF9D91B4B033323F003038D
:102B90007B6000237B8027E07B88184A002142F875
:102BA000231000233B8015E07B88144A52F8232031
:102BB0007B681A607B8811497A6841F823207B88FA
:102BC0000F4A32F813301A467B6813447B603B8807
:102BD00001333B807B880B4A32F813303A889A42A3
:102BE000E2D37B8801337B807B88082BD4D90C37D8
:102BF000BD465DF8047B7047342900201029002071
:102C000054B7000868B7000880B485B000AF034629
:102C1000FB71FB79082B01D900230EE0FB790A4AEE
:102C200052F82330FB60FB68002B05D0FB79FA6873
:102C30001268054941F82320FB6818461437BD4641
:102C40005DF8047B704700BF1029002080B485B078
:102C500000AF03463960FB713B68002B00D10CE0EC
:102C60003B68FB60FB79074A52F82320FB681A6037
:102C7000FB790449FA6841F823201437BD465DF812
:102C8000047B70471029002080B584B000AF7860C5
:102C90000123FB73FB7B002B10D07B685B6A1B7AE4
:102CA000002B03D0786800F07BF80AE0786800F029
:102CB00051F87B685B6A64221A7202E0786800F05F
:102CC0006FF81037BD4680BD80B584B000AF786026
:102CD00039607B6893F82F301A467B6893F8303060
:102CE0001B021A43184B1344184604F0DDFF034639
:102CF000184604F0F3FFF8607B685B6A5B7A1A465B
:102D0000FB681344FB60FB689BB243F0294343F428
:102D10007E03FB60FB680D4A934203D8FB6803F512
:102D20007E43FB60FB680A4A934203D9FB68A3F524
:102D30007E43FB60F86804F0B7FF02463B681A6008
:102D40001037BD4680BD00BF0001FEA9FF00FEA9EF
:102D5000FFFEFEA990B587B004AF78607B6803F1F1
:102D60002B027B6803F12B047B685B6A18467B6847
:102D70005B6A19460090084B01930291012303936B
:102D800078681146054A234603F05CFC0346184662
:102D90000C37BD4690BD00BFC0B70008B8B70008EB
:102DA00080B584B000AF78607B685B6AFB6000230D
:102DB000FB72786805F0C6F80346002B02D07868ED
:102DC00005F0A6F87B6800225A607B6800229A60B2
:102DD0007B680022DA60FB68002B11D10A20FDF726
:102DE000B3FBF860FB68002B01D1FF2329E0F868F2
:102DF00000210A2208F0EAFB7B68FA685A6211E0B7
:102E0000FB6800221A71FB680022DA80FB6800224E
:102E10005A71FB6818460021042208F0D7FBFB68B2
:102E200000221A72FB6878681946FFF74DFFFB68AD
:102E30005B7A0133DAB2FB685A72786800F006F800
:102E4000FB7A5BB218461037BD4680BD80B485B0B2
:102E500000AF78607B685B6AFB60FB6801221A71D7
:102E6000FB6800225A717B6893F830301A067B6841
:102E700093F82E301B041A437B6893F82D301B0205
:102E800013437A6892F82F2013437A68526A002A13
:102E900003D07A68526A527A00E0002299180C4BEB
:102EA000A3FB0123DA0813469B0013445B00CA1AF4
:102EB00092B2FB68DA80FB685B7A0A2B03D9FB6865
:102EC0004FF41672DA801437BD465DF8047B704704
:102ED000CDCCCCCC80B586B000AF786039607B6853
:102EE0005B6A002B69D07B685B6A1B79002B64D01E
:102EF0007B6893F82B303B727B6893F82C307B72A5
:102F00007B6893F82D30BB727B6893F82E30FB7290
:102F10007B6893F82F303B737B6893F830307B737A
:102F20003A6807F114030E32106818603A6807F126
:102F300010031832106818607B685B6A1B79012BDC
:102F400009D07B685B6A1B79022B21D17B685B6AA5
:102F50005B79002B1CD17A697B685B6A1B689A429B
:102F600011D03A697B685B6A1B689A420FD13B6853
:102F7000083307F1080210461946062208F05AFAEB
:102F80000346002B03D07868FFF70AFF15E014E032
:102F90007A697B685B6A1B689A420ED13B6808338A
:102FA00007F1080210461946062208F043FA0346C4
:102FB000002B02D07868FFF767FE1837BD4680BD4A
:102FC00080B586B000AF7860396000237B613B68D4
:102FD000002B7B685B685B68FB60FB689B889BB22F
:102FE000002B1ED17B685B683B61FB681A687B68BD
:102FF0005A603B695A687B680833104619461422A8
:1030000008F04AFA3869012106F0F0FD386904F049
:103010008BFC03461A467B6913447B61386904F0D4
:1030200033FC7B685B683B6112E03B695B68FB607B
:103030003B69BB60FB681B683B61B86804F074FCCB
:1030400003461A467B6913447B61B86804F01CFC94
:103050003B69002BE9D17868396800F0A5F8064B88
:103060001A887B699BB2D31A9AB2034B1A807B6988
:1030700018461837BD4680BDA476002080B588B0BC
:1030800000AF7860396000233B610023BB610023FF
:103090007B610023FB60264B1B68FB612CE0FB6916
:1030A0005A697B68DB689A420CD1FB699A697B6834
:1030B0001B699A4206D1FB699A897B689B889BB2FF
:1030C0009A4210D0FB680133FB60BB69002B02D130
:1030D000FB69BB6107E0FB69DA7FBB69DB7F9A4272
:1030E00001D8FB69BB61FB691B68002B01D0FB6940
:1030F0007B61FB691B68FB61FB69002BCFD1BB695E
:10310000002B08D0B8697969FFF75AFFB8603A69AF
:10311000BB6813443B613A693B689A4202DAFB6838
:10312000012BB2DC3B6918462037BD4680BD00BF8D
:10313000A076002080B584B000AF786039600520AB
:10314000FFF762FDF860FB68002B10D178683968E2
:10315000FFF794FF02463B689A4203DB0520FFF726
:1031600053FDF860FB68002B01D1002316E0F868DE
:103170000021202208F02AFAFB680322DA77094BA3
:103180001A68FB681A60074AFB681360FB6808331B
:1031900018467968142208F07FF9FB681846103742
:1031A000BD4680BDA076002080B582B000AF7860BB
:1031B00039600A4B1A687B689A4204D17B681B68A5
:1031C000064A136003E07B681A683B681A600520B2
:1031D0007968FFF73BFD0837BD4680BDA07600202B
:1031E00090B58BB000AF7860396000233B6201235B
:1031F000BB613B685B687B617B695B889BB21846FF
:1032000004F044FD03461C467B691B889BB21846AC
:1032100004F03CFD03461B0A9BB203F00F039BB274
:103220001A469203D31A9B009BB223447B827B698C
:10323000DB889BB2184604F029FD0346C3F30C0358
:103240009BB2DB003B823B685B687B627B6A00224F
:103250001A7000225A7000229A700022DA707B6A7B
:103260003A8A9A803A8A7B8A13449AB27B6ADA80D5
:103270007B685B68FB614EE0FB695B68FB607B6AB7
:103280009B889AB2FB689B889BB29A421FD27B6A4A
:10329000FA691A603B6A002B15D07B6A9B889AB248
:1032A0003B6ADB889BB29A42C0F08B807B6ADB88EA
:1032B0009AB2FB689B889BB29A4200F282803B6A7A
:1032C0003A681A602AE07B683A685A6026E07B6AAE
:1032D0009B889AB2FB689B889BB29A4200D170E0AF
:1032E0007B6A9B889AB2FB68DB889BB29A4200D2C9
:1032F00067E03B6A002B09D03B6ADB889AB2FB6827
:103300009B889BB29A4201D00023BB61FB681B687B
:10331000FB61FB683B62FB69002BADD1FB69002BB5
:1033200017D13B6A002B11D03B6ADB887B6A9B88F4
:103330003B6A3A681A603B6ADB889AB27B6A9B8870
:103340009BB29A4205D00023BB6102E07B683A68D9
:103350005A607B689B7F03F00103002B2FD0BB6971
:10336000002B2AD07B685B685B689B889BB2002B34
:1033700002D00023BB6120E07B6A3B627B6A1B6852
:10338000FB6112E0FB695B687B623B6ADB889AB297
:103390007B6A9B889BB29A4202D00023BB6107E004
:1033A0007B6A3B627B6A1B68FB61FB69002BE9D18E
:1033B000BB69002B01D07B6ADB88BB6911E000236D
:1033C0000FE0386804F0B0FA03461946074B1A8834
:1033D0008BB2D31A9AB2054B1A80386804F054FAAB
:1033E000002318462C37BD4690BD00BFA4760020B0
:1033F00090B58BB000AF78600023FB617B685B68A1
:10340000BB61BB691B889BB2184604F03FFC0346B6
:103410001B0A9BB203F00F039B00142B00D00EE19C
:10342000BB69DB889BB2184604F030FC0346C3F34B
:103430000C039BB2DB00FB82BB695B889BB2184626
:1034400004F024FC03461C46BB691B889BB218464B
:1034500004F01CFC03461B0A9BB203F00F039BB253
:103460001A469203D31A9B009BB22344BB8278680E
:1034700004F05AFA0346FB74754B1B881A46FB7C12
:1034800013440A2B10DDFB7CB8691946FFF7F6FDE3
:103490000346002B00F0D3806D4B1B881A46FB7C43
:1034A00013440A2B00F3CB806A4B1B683B6218E085
:1034B0003B6A5A69BB69DB689A420DD13B6A9A69DB
:1034C000BB691B699A4207D13B6A9A89BB699B8891
:1034D0009BB29A4200D107E03B6AFB613B6A1B68E2
:1034E0003B623B6A002BE3D13B6A002B09D1FB7C9A
:1034F000B8691946FFF71EFE38623B6A002B1CD1E3
:103500009DE0BB69DB889BB2184604F0BFFB034615
:10351000C3F30C03002B10D13B6ADB89184604F07F
:10352000B5FB0346C3F30C03002B06D03B6A0833FC
:103530001846B969142207F0AFFFFB7C9AB2444BDE
:103540001B8813449AB2424B1A80BB69DB889BB23A
:10355000184604F09BFB034603F40053002B0CD1E8
:103560003B6A9B7F43F00103DAB23B6A9A77FA8A9F
:10357000BB8A13449AB23B6A9A83386A7968FFF728
:103580002FFE0346002B58D03B6A9B8B14339AB214
:103590003B6A9A833B6A5B685B681B687B623B6A39
:1035A0005B685B68BB613B6A0833B86919461422E3
:1035B00007F072FF3B6A9B8B184604F051FB0346F1
:1035C0001A46BB695A80BB6900229A710022DA71DF
:1035D000BB6900229A720022DA72B869142101F0E4
:1035E00051FA03461A46BB695A813B6A5B687B60A5
:1035F0000EE07B6A5B68FB60786A6FF0130104F091
:10360000D3F87868796A04F0B9F9FB681B687B62C3
:103610007B6A002BEDD1386AF969FFF7C5FD786840
:1036200004F082F903461946094B1A888BB2D31A63
:103630009AB2074B1A807B6805E0002303E07868A4
:1036400004F022F9002318462C37BD4690BD00BF78
:10365000A4760020A076002080B58CB000AFF86082
:10366000B9607A60BB681B8DFB8414237B850220C4
:103670000021022203F03AFF38623B6A002B01D19D
:10368000FF23B4E03B6AFA8C5A813B6A5A893B6A51
:103690001A81594B033323F003031A463B6A5A60DD
:1036A0003B6A5B68FB61FB685B68F869194614223A
:1036B00007F0F2FEFB69DB889BB2184604F0E6FADD
:1036C00003463B853B8DC3F30C03BB853B8D03F465
:1036D00000537B83FB681B89143BFB85FB8C143BED
:1036E000002B00DA0733DB103B8379E0FA8DFB8C8B
:1036F000143B9A42D4BF01230023DBB2FB82BB8D73
:10370000C3F30C039AB27B8B13433B85FB8A002BDC
:1037100003D13B8D43F400533B85FB8A002B03D13F
:103720003B8BDB009BB200E0FB8DBB82FB6903F1AE
:103730001401BA8A7B8DF86804F0DEF903461A4654
:103740007B8D13447B853B8D184604F089FA034634
:103750001A46FB69DA80BB8A14339BB2184604F020
:103760007FFA03461A46FB695A80FB6900229A7267
:103770000022DA72F869142101F084F903461A462E
:10378000FB695A81FB8A002B06D0FB8D14339BB258
:10379000386A194603F0A4FF02200021002203F03A
:1037A000A5FE38613B69002B0DD03869396A04F0F9
:1037B00013F9BB685B69B86839697A6898473869F2
:1037C00004F062F804E0386A04F05EF8FF230EE0CB
:1037D000FA8DBB8AD31AFB85BA8D3B8B1344BB850C
:1037E000FB8D002B82D1386A04F04EF800235BB2C7
:1037F00018463037BD4680BDA876002080B582B01F
:1038000000AF0023FB7100233B600D4B1B78002BA6
:1038100011D101F079FE38603B68012B01D1012301
:10382000FB713B68022B01D10223FB7101F046FBC7
:10383000034B01221A70FB7918460837BD4680BD3C
:103840008C7C002080B582B000AF0023FB71204B40
:103850001B78002B01D1012336E01D4B1B78022B76
:1038600001D1022330E01B4B1B78002B01D0032336
:103870002AE005F08BFD0246174B1A60164B1B68B9
:10388000002B01D104231FE0144804F00DFA024676
:10389000134B1A60104B1B6818461149072205F09C
:1038A000D3FC0346BB7197F90630002B01D00523EA
:1038B0000AE0094B1B6818460A49002205F024FD5E
:1038C000034B02221A70FB7918460837BD4680BDAB
:1038D0008C7C0020DC7C0020F0AA01207B02A8C0A8
:1038E000ECAA0120213A000880B584B000AF7860CE
:1038F0000023FB73184B1B78022B27D1786807F045
:10390000B3FE03469BB200201946032203F0EEFDEE
:10391000B860BB68002B01D1002318E0786807F07D
:10392000A3FE03469BB2B86879681A4604F04AF9C8
:103930000A4B1A680A4B1B881046B968094A05F0F9
:10394000CFFBB86803F0A0FF0123FB73FB7B184695
:103950001037BD4680BD00BF8C7C0020F0AA01203E
:10396000F4AA0120F8AA012080B586B000AF7860E3
:103970000123FB75264B1B78002B1BD000F000FEAB
:103980000346002B01D001F0D3FA224B1B681846E6
:1039900001F0D6FA204B1B78002B0BD01C4B1B7868
:1039A000022B07D11D4B1B68184605F0BFFC184BB6
:1039B00001221A70164B1B78022B01D0002323E042
:1039C000134B5B68002B1ED00223FB7500233B6169
:1039D0000F4A3B6913445B78FB737A683B69134475
:1039E000FA7B1A703B6901333B613B69002B02D1C2
:1039F000FB7B002BECD17A683B69134400221A70E0
:103A0000034B00225A60FB7D18461837BD4680BD27
:103A10008C7C0020887C0020DC7C0020F0AA012027
:103A200080B588B000AFF860B9607A603B60174A33
:103A30003B681B681360164A3B8D13807B685B688C
:103A4000BB610023FB61BB691B78FB75114AFB69F5
:103A50001344FA7D5A70BB690133BB61FB690133C2
:103A6000FB61FB7D002B02D0FB69002BEBD0094AE8
:103A7000FB69134400225A70064AFB695360786858
:103A800003F002FF2037BD4680BD00BFF8AA012029
:103A9000F4AA01208C7C002080B500AF4FF4804058
:103AA00005F062FF0346002B06D0012001F0C2FEA4
:103AB0004FF4804005F07CFF80BD00BF80B582B030
:103AC00000AF124B7B60124B3B6007E03B681A1D56
:103AD0003A607A68111D796012681A603B680D4A75
:103AE0009342F3D30C480D494FF000028842B8BF0F
:103AF00040F8042BFADBDFF82800016841F470017C
:103B0000016001F01DF80837BD4680BDE4B700082C
:103B100000000020B8000020B80000202CE80120A0
:103B200088ED00E080B400AFFEE700BF80B584B050
:103B300000AF0023FB7342E0FA7B244913469B004D
:103B400013449B000B4408335B681846012101F0C5
:103B50005BF9FA7B1D4913469B0013449B000B4401
:103B600008331B887B6001233B720023BB72012357
:103B7000FB7202237B72FA7B144913469B001344A9
:103B80009B000B445A683B1D1046194604F0EEF9A1
:103B9000FA7B0E4913469B0013449B000B441033E1
:103BA0001B78002B04D1FB7B184600F011F803E0D2
:103BB000FB7B184600F02AF8FB7B0133FB73FB7B91
:103BC000032BB9D91037BD4680BD00BF340000209B
:103BD00080B483B000AF0346FB71FA790A491346FB
:103BE0009B0013449B000B445968FA79064813461E
:103BF0009B0013449B00034408331B884B830C3702
:103C0000BD465DF8047B70473400002080B483B06B
:103C100000AF0346FB71FA790A4913469B0013442F
:103C20009B000B445968FA79064813469B001344DD
:103C30009B00034408331B880B830C37BD465DF89B
:103C4000047B70473400002090B482B000AF03467C
:103C5000FB71FA790F4913469B0013449B000B44F8
:103C60005968FA790B4813469B0013449B000344A0
:103C70005B685869FA79074C13469B0013449B0014
:103C8000234408331B8843404B610837BD4690BC32
:103C9000704700BF3400002080B485B000AF78606A
:103CA0000023FB607B68FB6002E0FB68013BFB607C
:103CB000FB68002BF9D11437BD465DF8047B7047D3
:103CC00080B500AF4FF00070012101F0D9F84FF03E
:103CD0000070002101F0D4F880BD00BF80B483B033
:103CE00000AF78607B6801221A607B6800225A600E
:103CF0007B6800229A607B680022DA607B68002281
:103D00001A617B684FF480425A617B6800229A6195
:103D10007B680022DA617B684FF400621A627B687C
:103D200000225A627B6800229A627B680022DA6273
:103D30007B6800221A637B6800225A637B6800223A
:103D40009A637B680022DA637B6840221A647B688E
:103D500020225A647B6800229A647B680022DA641D
:103D60007B6800221A657B6800225A657B68002206
:103D70009A657B680022DA657B6800221A667B6898
:103D800080225A667B6800229A667B680022DA6687
:103D90007B6800221A677B6800225A677B680022D2
:103DA0009A677B680022DA677B684FF08062C3F80D
:103DB00080207B684FF00072C3F884207B6800226B
:103DC000C3F888207B684FF40012C3F88C207B680E
:103DD0000022C3F890207B680022C3F894207B68FF
:103DE0000022C3F898207B680022C3F89C207B68DF
:103DF0000022C3F8A0207B684FF00072C3F8A42013
:103E00007B684FF48032C3F8A8207B684FF48002AF
:103E1000C3F8AC207B684FF40052C3F8B0207B6835
:103E20000022C3F8B4207B680022C3F8B8200C3706
:103E3000BD465DF8047B704780B58AB000AF7860FE
:103E40000B467B8000233B6200237B62684BFB6157
:103E50000023BB60674B1B697B627B6A23F01C03FA
:103E60007B6207F10C03184600F024FF3B69FB61FD
:103E7000FB69614A934208D9FB69604A934204D8BE
:103E80007B6A43F008037B6226E0FB695B4A93424E
:103E900008D9FB695A4A934204D87B6A43F00C0361
:103EA0007B6219E0FB69564A934204D9FB69554A83
:103EB000934200D810E0FB69524A934208D9FB694B
:103EC000514A934204D87B6A43F004037B6203E0C7
:103ED0007B6A43F010037B62464A7B6A13617B88EE
:103EE000184600214FF4004200F0EEFC0346002B80
:103EF00001D100236EE14548FFF7CEFE7B681B68C9
:103F0000002B5FD0BB680133BB607B881846012162
:103F100000F08AFC034603F00403002B03D1BB68C6
:103F20003B4A9342EED9BB683A4A934201D10023FF
:103F300050E10023BB607B88184600214FF480527B
:103F400000F0C2FC0346002B01D1002342E1BB6814
:103F50000133BB607B881846012100F065FC0346F5
:103F600003F02003002B03D1BB68294A9342EED90A
:103F7000BB68284A934201D100232BE10023BB6098
:103F80007B881846102100F04FFC03463B623B6AD9
:103F900003F00403002B04D07B684FF400621A6224
:103FA00002E07B6800221A623B6A03F00203002BE6
:103FB00003D07B6800225A6132E07B684FF4804274
:103FC0005A612DE07B681B6ADB089AB27B685B69EB
:103FD0005B089BB213439BB27A88104600211A46B5
:103FE00000F072FC0346002B16D10023F2E000BF64
:103FF0000087930300800240FF2C3101BF0E1602A0
:10400000FF869303FFE0F5057FD1F008FFFF0F0067
:10401000FEFF0400FFFF04006FF07F40FFF73CFE4F
:104020006E4B1B687B627A6A6D4B13407B627B68C8
:104030005A687B689B681A437B68DB681A437B6815
:104040001B691A437B685B691A437B689B691A4347
:104050007B68DB691A437B681B6A1A437B685B6A6F
:104060001A437B689B6A1A437B68DB6A1A437B6846
:104070001B6B1A437B685B6B13437A6A13437B6247
:10408000564A7B6A136055497B689A6B7B68DB6B89
:104090001A437B681B6C1A437B685B6C1A437B6812
:1040A0009B6C1A437B68DB6C1A437B681B6D1A435D
:1040B0007B685B6D13434B60484A7B689B6D9360E4
:1040C000464A7B68DB6DD360444B9B697B627A6AAE
:1040D0004FF6417313407B627B681B6E1A047B684A
:1040E0005B6E1A437B689B6E1A437B68DB6E1A43D8
:1040F0007B681B6F1A437B685B6F13437A6A1343B9
:104100007B62364A7B6A936134497B689A6F7B682D
:10411000DB6F1343CB61314B03F5805318331B68BE
:104120007B627A6A2F4B13407B627B68D3F88020D6
:104130007B68D3F884301A437B68D3F888301A43FD
:104140007B68D3F88C301A437B68D3F890301A43DD
:104150007B68D3F894301A437B68D3F898301A43BD
:104160007B68D3F89C301A437B68D3F8A0301343A4
:104170007A6A13437B62194B03F5805318337A6ACA
:104180001A6016497B68D3F8A4207B68D3F8A8305E
:104190001A437B68D3F8AC301A437B68D3F8B0304D
:1041A0001A437B68D3F8B4309B001A437B68D3F87A
:1041B000B830134343F4000201F580531A600749F5
:1041C000064B03F580531B6843F0800201F58053D2
:1041D0001A60012318462837BD4680BD0080024082
:1041E0000F8120FF233FDEF880B500AF012000F0F3
:1041F0000DF800F0B5FA012000F024F8012000F0DD
:10420000C3FA012000F0E8FA80BD00BF80B483B09B
:1042100000AF0346FB71FB79002B06D0084A084B20
:104220001B6843F00803136005E0054A044B1B6854
:1042300023F0080313600C37BD465DF8047B70471C
:104240000080024080B483B000AF0346FB71FB796D
:10425000002B06D0084A084B1B6843F00403136088
:1042600005E0054A044B1B6823F0040313600C3778
:10427000BD465DF8047B70470080024080B485B085
:1042800000AF786039603B6805331B781B023A68E1
:10429000043212781343FB607A68114B13441A46B8
:1042A000FB6813603B6803331B781A063B680233D4
:1042B0001B781B041A433B6801331B781B02134312
:1042C0003A6812781343FB607A68064B13441A4627
:1042D000FB6813601437BD465DF8047B704700BF70
:1042E000408002404480024090B486B000AF7860C5
:1042F00000237B610023BB600023FB6000233B6144
:10430000174B1B681A68174B13401B0C043B7B614F
:104310007B69BB60144B1B689B68012B05D9124B52
:104320001B681B689B68FB6003E00D4B1B689B6868
:10433000FB600B4B1B683B61094B1B68DB681A4633
:10434000074B1A607B681C4607F1080393E80700D7
:1043500084E8070078681837BD4690BC704700BFF6
:1043600008AB01200000FF3F78C9012080B487B06E
:1043700000AF0346FB8000237B610023BB6000236A
:104380003B61514B1B681B68002B01DA002395E051
:104390004D4B1B68FB60FB8840F2F452934217D9E7
:1043A000FB884A4AA2FB03239B0A9BB27B61FB88E2
:1043B000464AA2FB0312920A40F2F45101FB02F2B8
:1043C0009B1A9BB2002B05D07B6901337B6101E016
:1043D00001237B617B69012B1CD13B4B1B683A4A53
:1043E0001268126842F040521A60374B1B68FA8814
:1043F000C2F30C025A60344B1B68334A12681268CD
:1044000042F000421A60304B1B68DB681A462E4BA4
:104410001A603DE000233B6133E03B69002B07D18C
:10442000294B1B68284A1268126842F080521A60B1
:10443000FB6840F2F4525A607B695A1E3B699A420B
:1044400013D1FB681B6843F00052FB681A60FA88BE
:104450007B691F4901FB03F3134403F2F453BB6070
:10446000BB68C3F30C02FB685A60FB681B6843F02F
:104470000042FB681A60FB68DB68FB603B69013344
:104480003B613A697B699A42C7D30F4AFB68136064
:10449000104B03F5805314331B6803F00403002B07
:1044A0000BD00C4B03F58053143304221A60094BD4
:1044B00003F58053043300221A60012318461C3789
:1044C000BD465DF8047B70470CAB01200BB002AC1D
:1044D0000CFAFFFF0080024080B487B000AFF860A4
:1044E000B9607A6000237B61214AFB681360002376
:1044F0007B612AE07B695B01FA6813443B613B699D
:104500004FF000421A603B6944F2F4525A607B69F2
:1045100040F2F45202FB03F3BA6813441A463B69B3
:104520009A607B685A1E7B699A4208D97B6901337D
:104530005B01FA6813441A463B69DA6002E0FA68E4
:104540003B69DA607B6901337B617A697B689A42F7
:10455000D0D3084BFA6803F580530C331A60064B2E
:10456000064A1A601C37BD465DF8047B704700BFE1
:1045700008AB01200080024078C90120FCAA01207C
:1045800080B400AF314B1B681B68002B12DB2F4B34
:104590001B681B6803F48073002B0BD02C4B1B682B
:1045A0002A4A12685A602A4B1B689A6801329A603C
:1045B000012345E0254B1B681B68002B21DB234BA7
:1045C0001B681B6803F40073002B1AD01F4B1B6879
:1045D0001B6803F48073002B13D11D4B1B681B4A0F
:1045E00012681A601A4B1B6800225A60184B1B682D
:1045F00001229A60154B1B68DB681A46134B1A6040
:104600001DE0124B1B681B68002B18DB0F4B1B684F
:104610001B6803F40073002B11D10C4B1B681B6843
:1046200003F48073002B0AD1094B1B689A6801328E
:104630009A60064B1B68DB681A46044B1A6000231D
:104640001846BD465DF8047B704700BF08AB0120EB
:1046500078C9012080B487B000AFF860B9607A6093
:1046600000237B611D4AFB68136000237B6126E009
:104670007B695B01FA6813443B613B694FF480122C
:104680001A607B6940F2F45202FB03F3BA681344E8
:104690001A463B699A607B685A1E7B699A4208D920
:1046A0007B6901335B01FA6813441A463B69DA609F
:1046B00002E0FA683B69DA607B6901337B617A6901
:1046C0007B689A42D4D3064BFA6803F580531033C3
:1046D0001A601C37BD465DF8047B70470CAB0120A7
:1046E0000080024080B483B000AF786039607B689E
:1046F0001A683B681A437B681A600C37BD465DF840
:10470000047B704780B400AF0649064B03F5805325
:104710001B6843F0010201F580531A60BD465DF845
:10472000047B70470080024080B483B000AF002358
:10473000FB710A4B03F580531B6803F00103002B48
:1047400002D00123FB7101E00023FB71FB791846C5
:104750000C37BD465DF8047B704700BF0080024007
:1047600080B400AF0749074B03F5805318331B682B
:1047700043F4801201F5805318331A60BD465DF88A
:10478000047B70470080024080B483B000AF0346D2
:10479000FB71FB79002B0CD00E490E4B03F58053B7
:1047A00018331B6843F4005201F5805318331A6024
:1047B0000BE00849074B03F5805318331B6823F4BB
:1047C000005201F5805318331A600C37BD465DF86E
:1047D000047B70470080024080B483B000AF034682
:1047E000FB71FB79002B0CD00E490E4B03F5805367
:1047F00018331B6843F0020201F5805318331A6026
:104800000BE00849074B03F5805318331B6823F06E
:10481000020201F5805318331A600C37BD465DF86B
:10482000047B70470080024080B485B000AF03462F
:104830000A46FB801346BB800023FB600023BB605D
:104840001E4B1B69FB60FB6803F01C03FB60FB88CD
:10485000DB029BB2FA681343FB60BB889B0103F445
:10486000F863FA681343FB60FB6823F00203FB6004
:10487000FB6843F00103FB60104AFB681361BB68EF
:104880000133BB600D4B1B69FB60FB6803F0010348
:10489000002B03D0BB680A4A9342F0D9BB68094A8F
:1048A000934201D1002302E0044B5B699BB218469E
:1048B0001437BD465DF8047B704700BF008002409E
:1048C000FEFF0400FFFF040080B485B000AF034684
:1048D000FB800B46BB8013467B800023FB600023DC
:1048E000BB601F4B1B69FB60FB6803F01C03FB6094
:1048F000FB88DB029BB2FA681343FB60BB889B0119
:1049000003F4F863FA681343FB60FB6843F00203A7
:10491000FB60FB6843F00103FB60114A7B88536135
:104920000F4AFB681361BB680133BB600C4B1B690A
:10493000FB60FB6803F00103002B03D0BB68094A4E
:104940009342F0D9BB68084A934201D1002300E0AA
:10495000012318461437BD465DF8047B704700BF3D
:1049600000800240FEFF0400FFFF040080B485B019
:1049700000AF786039607B681B68FB60FB68B3F14F
:10498000FF3F02D0FB68002B01D1012326E03B68EA
:1049900093F8313003F00203002B01D100231DE016
:1049A0003B685A68FB689A4201D1002316E07B6895
:1049B0001A683B685B685A403B689B681340002B51
:1049C0000BD13B689B68DA43FB681A403B689B68E5
:1049D000DB439A4201D1012300E00023184614373B
:1049E000BD465DF8047B704780B586B000AF786047
:1049F0000B467B8000237B617B683B6117E03B6952
:104A00001B789BB21B02FB813B6901333B613B6915
:104A10001B789AB2FB891343FB813B6901333B61ED
:104A2000FB897A6913447B617B88023B7B807B88AE
:104A3000012BE4D87B88002B08D03B691B789BB204
:104A40001B02FB81FB897A6913447B617B691A0C29
:104A50007B699BB213447B617B691B0C1B04002B9D
:104A600005D07B691A0C7B699BB213447B617B691F
:104A70009BB2184603F0F4F8034618461837BD46B3
:104A800080BD00BF80B582B000AF78600B467B80F0
:104A90007B8878681946FFF7A7FF0346DB439BB284
:104AA00018460837BD4680BD80B586B000AF786037
:104AB00000237B610023FB737B683B6129E03B693A
:104AC0005A683B695B8910461946FFF78DFF03461C
:104AD0001A467B6913447B617B691A0C7B699BB224
:104AE00013447B613B695B8903F001039BB2002B9C
:104AF0000CD0FB7BC3F10103FB737B691B029AB2F1
:104B00007B6903F47F431B0A13437B613B691B688A
:104B10003B613B69002BD2D1FB7B002B08D07B692A
:104B20001B029AB27B6903F47F431B0A13437B6128
:104B30007B699BB2DB439BB218461837BD4680BDEC
:104B400080B586B004AF03F099FBFEF7EFFFFEF7E8
:104B500055FE0346FB71FB79002B08D1FEF772FE70
:104B60000346002B06D10020FFF750F802E0022098
:104B7000FFF74CF8012300930023019300230293D5
:104B80000023039319481A498222002301F066FE8C
:104B90000123009300230193002302930023039336
:104BA000144815498222002301F058FE0123009386
:104BB0000023019300230293002303930F4810491D
:104BC0008222002301F04AFE012300930023019377
:104BD00000230293002303930A480B4982220023F7
:104BE00001F03CFE01F016FFFEE700BF0D4C00088F
:104BF00084B70008254C000890B700083D4C000819
:104C00009CB70008654C0008ACB7000880B582B0BE
:104C100000AF78600220FFF717F84FF47A7001F0C8
:104C2000D1FEF7E780B582B000AF78600320FFF7D0
:104C30000BF84FF4FA7001F0C5FEF7E780B584B0C9
:104C400000AF78600023FB6002E0FB680133FB608B
:104C5000FB68034A9342F8DD0120FEF7F5FFF1E718
:104C60003F420F0080B584B000AF786007F10C03BD
:104C70001846FEF779FE0346FB73FB7B002B03D13E
:104C80000020FEF7A5FF13E00020FEF7BFFFFB7B2F
:104C9000022B05D107F10C031846FEF725FE07E0AD
:104CA000FB7B012B04D10020FEF792FF03F04EFCAA
:104CB000DCE700BF80B489B000AF78600023BB613F
:104CC00000237B610023FB6102233B610023FB6027
:104CD0000223BB60484B9B6803F00C03BB61BB69BC
:104CE000042B07D0082B09D0002B3FD17B68434A07
:104CF0001A603FE07B68424A1A603BE03E4B5B68CB
:104D000003F480039B0DFB603B4B5B6803F03F03A8
:104D1000BB60FB68002B0DD0394ABB68B2FBF3F2D5
:104D2000354B596847F6C0730B409B0903FB02F3F0
:104D3000FB610CE0314ABB68B2FBF3F22E4B5968C1
:104D400047F6C0730B409B0903FB02F3FB612A4B40
:104D50005B6803F440331B0C01335B003B61FA6971
:104D60003B69B2FBF3F27B681A6003E07B68234A7D
:104D70001A6000BF204B9B6803F0F003BB61BB6966
:104D80001B09BB611F4ABB6913441B78DBB27B6103
:104D90007B681A687B69DA407B685A60164B9B68AF
:104DA00003F4E053BB61BB699B0ABB61154ABB6955
:104DB00013441B78DBB27B617B685A687B69DA40FD
:104DC0007B689A600C4B9B6803F46043BB61BB69D2
:104DD0005B0BBB610B4ABB6913441B78DBB27B6185
:104DE0007B685A687B69DA407B68DA602437BD46A5
:104DF0005DF8047B704700BF003802400024F400D7
:104E000000127A008400002080B483B000AF786084
:104E10000B46FB70FB78002B06D00949084B1A6B38
:104E20007B6813430B6306E00549054B1A6B7B68EF
:104E3000DB4313400B630C37BD465DF8047B7047C2
:104E40000038024080B483B000AF78600B46FB703E
:104E5000FB78002B06D00949084B5A6C7B6813433A
:104E60004B6406E00549054B5A6C7B68DB431340F5
:104E70004B640C37BD465DF8047B70470038024038
:104E800080B483B000AF78600B46FB70FB78002BDA
:104E900006D00949084B1A697B6813430B6106E089
:104EA0000549054B1A697B68DB4313400B610C37DE
:104EB000BD465DF8047B70470038024090B589B06C
:104EC00004AFFBF70FFAFDF753FE144802F0ECFEB7
:104ED0000346FB606FF0FF0002F0E6FE0346BB6096
:104EE0000F4802F0E1FE03467B6007F10C0107F179
:104EF00008023C1D002300930A4B01930A4B0293C6
:104F00000A48234602F0F6FE084802F0CFFF0748A1
:104F100002F0DAFF1437BD4690BD00BF7B02A8C087
:104F20000102A8C0C15A0008D5670008E0E70120C7
:104F300080B500AF014800F09FFD80BDE0E7012093
:104F400080B582B000AF78607A680D4B1B68D31AC9
:104F5000F92B04D97B680A4A1360FBF79BFB7A683C
:104F6000084B1B68D31A41F28732934204D97B68FD
:104F7000044A136000F0DEFD0837BD4680BD00BF67
:104F8000947C0020987C002080B586B004AF00237C
:104F90007B6000F043FA0F4B1B68002B0FD00223FD
:104FA00000930023019300230293002303930A48F4
:104FB0000A494FF48272002301F050FC78607B684C
:104FC000002B02D103F0F4FAFEE77B68184608379D
:104FD000BD4680BDD07C0020DD500008B0B7000881
:104FE00080B588B000AFF860B9607A603B6000239C
:104FF000FB611D4B1B68002B30D0BB683B617B689D
:105000007B61FB68BB613B68002B1CD102F0B8F9E7
:105010000346012B0BD1144B1A6807F110031046FD
:105020001946BA6A002303F0F7FBF86116E00E4B4D
:105030001A6807F11003104619460022002303F0F6
:10504000EBFBF8610AE0084B1A6807F11003104601
:1050500019463A68002303F08FFCF861FB69184693
:105060002037BD4680BD00BFD07C002080B586B013
:1050700002AF78603960184B1B68DB68DB68FB6047
:10508000FB680433184603F0CFF8FB68DB69012B9B
:105090001BD1FB689A697B681344F86819463A6823
:1050A0007B6800F0A9F80346012B0ED10023009382
:1050B000F86800217A680023FFF792FFB860BB68A8
:1050C000002B02D103F074FAFEE7FB685B6AF86814
:1050D00098471037BD4680BDC87C002080B584B09D
:1050E00000AF786007F10803184600F03FF8F86059
:1050F000BB68F868194600F003F800F0BFF8F1E764
:1051000080B584B000AF7860396001F0BBFC07F176
:105110000803184600F04EF8F860BB68002B1ED15B
:105120003B68002B0AD17A68FB689A4206D801F0E6
:10513000B7FC7868F968FFF799FF12E00A4B196825
:105140007A68FB68D31A0846194603F055FE01F049
:10515000A7FC0346002B04D103F0F8F901E001F0AD
:105160009FFC1037BD4680BDD07C002080B485B048
:1051700000AF78600E4B1B681B68002B0CBF01232F
:105180000023DBB21A467B681A607B681B68002B21
:1051900005D1074B1B68DB681B68FB6001E000233F
:1051A000FB60FB6818461437BD465DF8047B70470A
:1051B000C87C002080B584B000AF786001F0F6FCB8
:1051C000F8600C4B1B68FA689A4208D2094B1B68BE
:1051D000184600F0C9F87B6801221A6002E07B687B
:1051E00000221A60034AFB681360FB6818461037F8
:1051F000BD4680BDD47C002080B586B000AFF8608D
:10520000B9607A603B6000237B61FB68BA685A60D2
:10521000FB68FA681A61BA687B689A4212D87A68A1
:105220003B68D21AFB689B699A4202D301237B61D7
:105230001BE0104B1A68FB6804331046194602F055
:10524000BBFF12E07A683B689A4206D2BA683B68B4
:105250009A4202D301237B6107E0074B1A68FB687F
:1052600004331046194602F0A7FF7B691846183729
:10527000BD4680BDCC7C0020C87C002080B58AB0B3
:1052800002AF5FE03B69FB61FB695B69002B04D007
:10529000FB690433184602F0C7FF3B1D1846FFF7B1
:1052A00089FFB861BB68032B4BD801A252F823F0E9
:1052B000C152000845530008115300083B53000831
:1052C000FA68FB699B691A44FB68F8691146BA6978
:1052D000FFF792FF0346012B19D1FB695B6AF8695E
:1052E0009847FB69DB69012B11D1FA68FB699B695F
:1052F0001A4400230093F86900210023FFF770FE91
:1053000078617B69002B02D103F052F9FEE719E0C6
:10531000FA68FB699A61FB699B69002B02D103F073
:1053200047F9FEE7FB699A69BB691344F8691946B6
:10533000BA69BB69FFF760FF04E0F86905F04AF855
:1053400000E000BF074B1A6807F108031046194632
:105350000022002303F07AFB0346002B92D1203772
:10536000BD4680BDD07C002080B58AB002AF786099
:105370003DE0284B1B68DB681B68FB61254B1B6805
:10538000DB68DB68BB61BB690433184602F04CFF85
:10539000BB695B6AB8699847BB69DB69012B26D199
:1053A000BB699A69FB6913447B617A69FB699A421C
:1053B0000ED9BB697A695A60BB69BA691A61154B23
:1053C0001A68BB6904331046194602F0F5FE0EE078
:1053D00000230093B8690021FA690023FFF700FE5B
:1053E00038613B69002B02D103F0E2F8FEE7094B7C
:1053F0001B681B68002BBCD1064B1B68FB60064B6F
:105400001B68044A1360044AFB6813602037BD46DA
:1054100080BD00BFC87C0020CC7C002080B500AFE0
:1054200003F0A4F80D4B1B68002B13D10C4802F0BD
:1054300073FE0C4802F070FE0B4B094A1A600B4BCE
:10544000084A1A600A200C21002203F0A3F9024640
:10545000024B1A6003F09AF880BD00BFD07C002098
:10546000A07C0020B47C0020C87C0020CC7C0020E4
:1054700080B483B000AF03463960FB7197F9073001
:10548000002B0BDA0D49FB7903F00F03043B3A685C
:10549000D2B21201D2B20B441A7609E0084997F948
:1054A00007303A68D2B21201D2B20B4483F800231B
:1054B0000C37BD465DF8047B704700BF00ED00E08F
:1054C00000E100E080B582B000AF78607B68B3F1A6
:1054D000807F01D3012311E00A4A7B6823F07F43D8
:1054E000013B53604FF0FF300F21FFF7C1FF054B29
:1054F00000229A60034B07221A60002318460837DF
:10550000BD4680BD10E000E080B584B000AF00F083
:10551000A9F800F025F8104B1B68002B01D10123DE
:1055200016E0012000F00AF90346012B01D0022306
:105530000EE000F03FF93B461846FFF7BBFB7B68E7
:10554000064AA2FB03235B091846FFF7BBFF0023B3
:1055500018461037BD4680BDD87C00201F85EB5112
:1055600080B5B2B000AF0023C7F8C430002387F87D
:10557000C3304FF060600121FFF746FCFEF7A0FB4F
:10558000FFF7C0F814E0FFF7CFF80346012B02D075
:10559000012387F8C330D7F8C4300133C7F8C430CB
:1055A000D7F8C4302D4A934202D9022387F8C3307A
:1055B00097F8C330002BE6D097F8C330022B49D0C0
:1055C0003B1D1846FEF78AFB01237B6000233B62EC
:1055D0004FF40073FB6200233B630023FB63002353
:1055E000BB6400233B6500237B650023BB654FF450
:1055F0008063BB620023C7F884304FF00073C7F8A4
:1056000088304FF40013C7F890300023C7F8983063
:105610000023C7F89C300423C7F8A4304FF0007370
:10562000C7F8A8304FF48033C7F8AC304FF480038C
:10563000C7F8B0304FF40053C7F8B4304FF480438C
:10564000C7F8BC303B1D18460121FEF7F5FB0246AA
:10565000034B1A60C837BD4680BD00BF20A10700BC
:10566000D87C002080B582B000AF07200121FFF771
:10567000CBFB4FF480400121FFF7E4FB4FF4807334
:105680003B6003237B7102233B710023BB7100232A
:10569000FB713B462648194602F068FC0120FAF7E8
:1056A000B5FD86233B603B462148194602F05EFC6F
:1056B0001F4801210B2202F0E7FC1D4802210B22AA
:1056C00002F0E2FC1A4807210B2202F0DDFC4FF445
:1056D00060533B603B461748194602F047FC1548AB
:1056E0000B210B2202F0D0FC12480C210B2202F0FD
:1056F000CBFC10480D210B2202F0C6FC32233B608C
:105700003B460D48194602F031FC0B4801210B22A3
:1057100002F0BAFC084804210B2202F0B5FC06484E
:1057200005210B2202F0B0FC0837BD4680BD00BF4A
:1057300000000240000402400008024080B584B02E
:1057400000AF0346FB800023FB60FB881846112155
:10575000FFF76AF80346FB60FB6843F00303FB6056
:10576000FB689BB2FA88104611211A46FFF7ACF885
:105770000346002B01D1002318E0FB8818461221B4
:10578000FFF752F80346FB60FB6843F02003FB6021
:10579000FB689BB2FA88104612211A46FFF794F86C
:1057A0000346002B01D1002300E0012318461037E7
:1057B000BD4680BD80B586B000AF02200121FFF755
:1057C00023FB4FF480400121FFF73CFB00233B7596
:1057D0000023FB754FF480433B6107F1100314482D
:1057E000194602F0C3FB01200E21FAF7CDFC4FF45D
:1057F0008043BB6000233B730C237B730123BB738B
:1058000007F10803184604F03DF84FF4A06004F0D7
:1058100051FA28233B7100237B710023BB710123C4
:10582000FB713B1D184604F057FA1837BD4680BD82
:105830000004024080B582B000AF0346FB80FB88C5
:1058400018461221FEF7F0FF034603F40053002B25
:1058500006D0054B1B78DBB2DB43DAB2024B1A7081
:105860000837BD4680BD00BFDC7C002080B584B019
:1058700000AF78607B68062283F82A207B680222CA
:1058800083F82B207B68002283F82C207B68002281
:1058900083F82D207B68022283F82E207B6800226B
:1058A00083F82F207B68022283F830207B682B331B
:1058B00000201946FEF7E2FC7B6840F2DC521A85B4
:1058C0007B68322283F83120104811490522FEF707
:1058D000C1FE104810490522FEF7FEFD0023FB60C3
:1058E0000BE0FB685B01094A134418464FF4400182
:1058F000FEF7F8FEFB680133FB60FB68042BF0DD6C
:10590000FEF772FC1037BD4680BD00BF10AB012012
:105910001CCA01207CC90120B0AB012080B586B033
:1059200000AF7860396000233B61154B1B689B68B2
:10593000FB603B687B6114E03B69FA68D1187B69C6
:105940005A687B695B89084611461A4605F0A4FD32
:105950007B695B891A463B6913443B617B691B6821
:105960007B617B69002BE7D13B699BB21846FEF750
:10597000FDFC00235BB218461837BD4680BD00BF52
:105980000CAB012080B58CB000AF78600023BB6207
:1059900000237B620023FB6107F108031846FEF732
:1059A000A3FCBB687B83FB687B617B8B0320194670
:1059B000032201F09BFDF861FB69002B1AD0FB6903
:1059C000FB6214E0FB6A5968BB6A7A691A44FB6A95
:1059D0005B89084611461A4605F05EFDFB6A5B8945
:1059E0001A46BB6A1344BB62FB6A1B68FB62FB6A14
:1059F000002BE7D11E4B1B689B68012B04D91C4B65
:105A00001B681B683B6201E03B693B6200237B62D1
:105A100009E03B6A4FF000421A603B6ADB683B6278
:105A20007B6A01337B62124B1B689A687B6A9A42DD
:105A3000EFD80F4B1B6800229A600E4B03F5805382
:105A400014331B6803F08003002B0BD0094B03F5C4
:105A50008053143380221A60064B03F580530833B9
:105A600000221A60FB6918463037BD4680BD00BF72
:105A700078C901200080024080B584B000AF786012
:105A80007868FFF77FFFF860FB68002B01D1FF23E8
:105A900010E07B681B69F868796898470346FB72D9
:105AA00097F90B30002B04D0F86801F0EDFE0023CD
:105AB000FB60FB7A5BB218461037BD4680BD00BF65
:105AC00080B582B000AF78607B68732283F83220A3
:105AD0007B68742283F833207B68074A5A617B68AD
